{
  "_format": "hh-sol-artifact-1",
  "contractName": "LoveChain",
  "sourceName": "contracts/LoveChain.sol",
  "abi": [
    {
      "anonymous": false,
      "inputs": [
        {
          "indexed": true,
          "internalType": "uint256",
          "name": "confessionId",
          "type": "uint256"
        },
        {
          "indexed": true,
          "internalType": "address",
          "name": "receiver",
          "type": "address"
        },
        {
          "indexed": false,
          "internalType": "enum LoveChain.ConfessionStatus",
          "name": "status",
          "type": "uint8"
        }
      ],
      "name": "ConfessionResponded",
      "type": "event"
    },
    {
      "anonymous": false,
      "inputs": [
        {
          "indexed": true,
          "internalType": "uint256",
          "name": "confessionId",
          "type": "uint256"
        },
        {
          "indexed": true,
          "internalType": "address",
          "name": "sender",
          "type": "address"
        },
        {
          "indexed": true,
          "internalType": "address",
          "name": "receiver",
          "type": "address"
        },
        {
          "indexed": false,
          "internalType": "string",
          "name": "title",
          "type": "string"
        },
        {
          "indexed": false,
          "internalType": "string",
          "name": "message",
          "type": "string"
        },
        {
          "indexed": false,
          "internalType": "uint256",
          "name": "timestamp",
          "type": "uint256"
        }
      ],
      "name": "ConfessionSent",
      "type": "event"
    },
    {
      "anonymous": false,
      "inputs": [
        {
          "indexed": true,
          "internalType": "uint256",
          "name": "marriageId",
          "type": "uint256"
        },
        {
          "indexed": true,
          "internalType": "address",
          "name": "partnerA",
          "type": "address"
        },
        {
          "indexed": true,
          "internalType": "address",
          "name": "partnerB",
          "type": "address"
        },
        {
          "indexed": false,
          "internalType": "uint256",
          "name": "timestamp",
          "type": "uint256"
        }
      ],
      "name": "MarriageProposed",
      "type": "event"
    },
    {
      "anonymous": false,
      "inputs": [
        {
          "indexed": true,
          "internalType": "uint256",
          "name": "marriageId",
          "type": "uint256"
        },
        {
          "indexed": true,
          "internalType": "address",
          "name": "partnerB",
          "type": "address"
        },
        {
          "indexed": false,
          "internalType": "enum LoveChain.MarriageStatus",
          "name": "status",
          "type": "uint8"
        }
      ],
      "name": "MarriageResponded",
      "type": "event"
    },
    {
      "inputs": [
        {
          "internalType": "address",
          "name": "_to",
          "type": "address"
        },
        {
          "internalType": "string",
          "name": "_title",
          "type": "string"
        },
        {
          "internalType": "string",
          "name": "_message",
          "type": "string"
        }
      ],
      "name": "confess",
      "outputs": [
        {
          "internalType": "uint256",
          "name": "",
          "type": "uint256"
        }
      ],
      "stateMutability": "nonpayable",
      "type": "function"
    },
    {
      "inputs": [
        {
          "internalType": "uint256",
          "name": "",
          "type": "uint256"
        }
      ],
      "name": "confessions",
      "outputs": [
        {
          "internalType": "string",
          "name": "title",
          "type": "string"
        },
        {
          "internalType": "string",
          "name": "message",
          "type": "string"
        },
        {
          "internalType": "address",
          "name": "sender",
          "type": "address"
        },
        {
          "internalType": "address",
          "name": "receiver",
          "type": "address"
        },
        {
          "internalType": "uint256",
          "name": "timestamp",
          "type": "uint256"
        },
        {
          "internalType": "enum LoveChain.ConfessionStatus",
          "name": "status",
          "type": "uint8"
        }
      ],
      "stateMutability": "view",
      "type": "function"
    },
    {
      "inputs": [
        {
          "internalType": "address",
          "name": "receiver",
          "type": "address"
        }
      ],
      "name": "getConfessionsTo",
      "outputs": [
        {
          "components": [
            {
              "internalType": "string",
              "name": "title",
              "type": "string"
            },
            {
              "internalType": "string",
              "name": "message",
              "type": "string"
            },
            {
              "internalType": "address",
              "name": "sender",
              "type": "address"
            },
            {
              "internalType": "address",
              "name": "receiver",
              "type": "address"
            },
            {
              "internalType": "uint256",
              "name": "timestamp",
              "type": "uint256"
            },
            {
              "internalType": "enum LoveChain.ConfessionStatus",
              "name": "status",
              "type": "uint8"
            }
          ],
          "internalType": "struct LoveChain.Confession[]",
          "name": "",
          "type": "tuple[]"
        }
      ],
      "stateMutability": "view",
      "type": "function"
    },
    {
      "inputs": [
        {
          "internalType": "address",
          "name": "user",
          "type": "address"
        }
      ],
      "name": "getLoveCredit",
      "outputs": [
        {
          "internalType": "uint256",
          "name": "",
          "type": "uint256"
        }
      ],
      "stateMutability": "view",
      "type": "function"
    },
    {
      "inputs": [
        {
          "internalType": "address",
          "name": "user",
          "type": "address"
        }
      ],
      "name": "getMarriagesOf",
      "outputs": [
        {
          "components": [
            {
              "internalType": "address",
              "name": "partnerA",
              "type": "address"
            },
            {
              "internalType": "address",
              "name": "partnerB",
              "type": "address"
            },
            {
              "internalType": "uint256",
              "name": "timestamp",
              "type": "uint256"
            },
            {
              "internalType": "enum LoveChain.MarriageStatus",
              "name": "status",
              "type": "uint8"
            }
          ],
          "internalType": "struct LoveChain.Marriage[]",
          "name": "",
          "type": "tuple[]"
        }
      ],
      "stateMutability": "view",
      "type": "function"
    },
    {
      "inputs": [
        {
          "internalType": "uint256",
          "name": "",
          "type": "uint256"
        }
      ],
      "name": "marriages",
      "outputs": [
        {
          "internalType": "address",
          "name": "partnerA",
          "type": "address"
        },
        {
          "internalType": "address",
          "name": "partnerB",
          "type": "address"
        },
        {
          "internalType": "uint256",
          "name": "timestamp",
          "type": "uint256"
        },
        {
          "internalType": "enum LoveChain.MarriageStatus",
          "name": "status",
          "type": "uint8"
        }
      ],
      "stateMutability": "view",
      "type": "function"
    },
    {
      "inputs": [
        {
          "internalType": "address",
          "name": "partner",
          "type": "address"
        }
      ],
      "name": "registerMarriage",
      "outputs": [
        {
          "internalType": "uint256",
          "name": "",
          "type": "uint256"
        }
      ],
      "stateMutability": "nonpayable",
      "type": "function"
    },
    {
      "inputs": [
        {
          "internalType": "uint256",
          "name": "confessionId",
          "type": "uint256"
        },
        {
          "internalType": "bool",
          "name": "accept",
          "type": "bool"
        }
      ],
      "name": "respondConfession",
      "outputs": [],
      "stateMutability": "nonpayable",
      "type": "function"
    },
    {
      "inputs": [
        {
          "internalType": "uint256",
          "name": "marriageId",
          "type": "uint256"
        },
        {
          "internalType": "bool",
          "name": "accept",
          "type": "bool"
        }
      ],
      "name": "respondMarriage",
      "outputs": [],
      "stateMutability": "nonpayable",
      "type": "function"
    }
  ],
  "bytecode": "0x6080604052348015600f57600080fd5b50612bcf8061001f6000396000f3fe608060405234801561001057600080fd5b50600436106100935760003560e01c80637cf7b946116100665780637cf7b946146101475780638c53133c1461017c5780638d6a310314610198578063a27bfd3b146101c8578063afcc576b146101f857610093565b806304a30f12146100985780634bb39ba9146100c8578063573662c1146100f85780636e4dd7241461012b575b600080fd5b6100b260048036038101906100ad9190611d0a565b610228565b6040516100bf9190611db8565b60405180910390f35b6100e260048036038101906100dd9190611dd3565b610544565b6040516100ef9190612077565b60405180910390f35b610112600480360381019061010d91906120c5565b610953565b6040516101229493929190612149565b60405180910390f35b610145600480360381019061014091906121c6565b6109e0565b005b610161600480360381019061015c91906120c5565b610bf6565b6040516101739695949392919061225f565b60405180910390f35b610196600480360381019061019191906121c6565b610d9f565b005b6101b260048036038101906101ad9190611dd3565b610fb4565b6040516101bf9190611db8565b60405180910390f35b6101e260048036038101906101dd9190611dd3565b611203565b6040516101ef91906123e1565b60405180910390f35b610212600480360381019061020d9190611dd3565b6115e6565b60405161021f9190611db8565b60405180910390f35b60003373ffffffffffffffffffffffffffffffffffffffff168673ffffffffffffffffffffffffffffffffffffffff1603610298576040517f08c379a000000000000000000000000000000000000000000000000000000000815260040161028f9061244f565b60405180910390fd5b60006040518060c0016040528087878080601f016020809104026020016040519081016040528093929190818152602001838380828437600081840152601f19601f82011690508083019250505050505050815260200185858080601f016020809104026020016040519081016040528093929190818152602001838380828437600081840152601f19601f8201169050808301925050505050505081526020013373ffffffffffffffffffffffffffffffffffffffff1681526020018873ffffffffffffffffffffffffffffffffffffffff1681526020014281526020016000600281111561038b5761038a611eda565b5b8152509050600081908060018154018082558091505060019003906000526020600020906006020160009091909190915060008201518160000190816103d191906126aa565b5060208201518160010190816103e791906126aa565b5060408201518160020160006101000a81548173ffffffffffffffffffffffffffffffffffffffff021916908373ffffffffffffffffffffffffffffffffffffffff16021790555060608201518160030160006101000a81548173ffffffffffffffffffffffffffffffffffffffff021916908373ffffffffffffffffffffffffffffffffffffffff1602179055506080820151816004015560a08201518160050160006101000a81548160ff021916908360028111156104ab576104aa611eda565b5b02179055505050600060016000805490506104c691906127ab565b90508773ffffffffffffffffffffffffffffffffffffffff163373ffffffffffffffffffffffffffffffffffffffff16827fcf024107f25d57e13fcc5f06cc7705513af7477108a5fc0328a10621432bbbc78a8a8a8a4260405161052e95949392919061281b565b60405180910390a4809250505095945050505050565b60606000805b6000805490508110156105eb578373ffffffffffffffffffffffffffffffffffffffff166000828154811061058257610581612864565b5b906000526020600020906006020160030160009054906101000a900473ffffffffffffffffffffffffffffffffffffffff1673ffffffffffffffffffffffffffffffffffffffff16036105de5781806105da90612893565b9250505b808060010191505061054a565b5060008167ffffffffffffffff8111156106085761060761246f565b5b60405190808252806020026020018201604052801561064157816020015b61062e611b63565b8152602001906001900390816106265790505b5090506000805b600080549050811015610947578573ffffffffffffffffffffffffffffffffffffffff16600082815481106106805761067f612864565b5b906000526020600020906006020160030160009054906101000a900473ffffffffffffffffffffffffffffffffffffffff1673ffffffffffffffffffffffffffffffffffffffff160361093a57600081815481106106e1576106e0612864565b5b90600052602060002090600602016040518060c001604052908160008201805461070a906124cd565b80601f0160208091040260200160405190810160405280929190818152602001828054610736906124cd565b80156107835780601f1061075857610100808354040283529160200191610783565b820191906000526020600020905b81548152906001019060200180831161076657829003601f168201915b5050505050815260200160018201805461079c906124cd565b80601f01602080910402602001604051908101604052809291908181526020018280546107c8906124cd565b80156108155780601f106107ea57610100808354040283529160200191610815565b820191906000526020600020905b8154815290600101906020018083116107f857829003601f168201915b505050505081526020016002820160009054906101000a900473ffffffffffffffffffffffffffffffffffffffff1673ffffffffffffffffffffffffffffffffffffffff1673ffffffffffffffffffffffffffffffffffffffff1681526020016003820160009054906101000a900473ffffffffffffffffffffffffffffffffffffffff1673ffffffffffffffffffffffffffffffffffffffff1673ffffffffffffffffffffffffffffffffffffffff168152602001600482015481526020016005820160009054906101000a900460ff1660028111156108f9576108f8611eda565b5b600281111561090b5761090a611eda565b5b8152505083838061091b90612893565b94508151811061092e5761092d612864565b5b60200260200101819052505b8080600101915050610648565b50819350505050919050565b6001818154811061096357600080fd5b90600052602060002090600402016000915090508060000160009054906101000a900473ffffffffffffffffffffffffffffffffffffffff16908060010160009054906101000a900473ffffffffffffffffffffffffffffffffffffffff16908060020154908060030160009054906101000a900460ff16905084565b6001805490508210610a27576040517f08c379a0000000000000000000000000000000000000000000000000000000008152600401610a1e90612927565b60405180910390fd5b600060018381548110610a3d57610a3c612864565b5b906000526020600020906004020190508060010160009054906101000a900473ffffffffffffffffffffffffffffffffffffffff1673ffffffffffffffffffffffffffffffffffffffff163373ffffffffffffffffffffffffffffffffffffffff1614610adf576040517f08c379a0000000000000000000000000000000000000000000000000000000008152600401610ad690612993565b60405180910390fd5b60006002811115610af357610af2611eda565b5b8160030160009054906101000a900460ff166002811115610b1757610b16611eda565b5b14610b57576040517f08c379a0000000000000000000000000000000000000000000000000000000008152600401610b4e906129ff565b60405180910390fd5b81610b63576002610b66565b60015b8160030160006101000a81548160ff02191690836002811115610b8c57610b8b611eda565b5b02179055503373ffffffffffffffffffffffffffffffffffffffff16837f5b97015f233a01938becff480c566742bf6102f8c25b60eb4e56a2d18a9a47fe8360030160009054906101000a900460ff16604051610be99190612a1f565b60405180910390a3505050565b60008181548110610c0657600080fd5b9060005260206000209060060201600091509050806000018054610c29906124cd565b80601f0160208091040260200160405190810160405280929190818152602001828054610c55906124cd565b8015610ca25780601f10610c7757610100808354040283529160200191610ca2565b820191906000526020600020905b815481529060010190602001808311610c8557829003601f168201915b505050505090806001018054610cb7906124cd565b80601f0160208091040260200160405190810160405280929190818152602001828054610ce3906124cd565b8015610d305780601f10610d0557610100808354040283529160200191610d30565b820191906000526020600020905b815481529060010190602001808311610d1357829003601f168201915b5050505050908060020160009054906101000a900473ffffffffffffffffffffffffffffffffffffffff16908060030160009054906101000a900473ffffffffffffffffffffffffffffffffffffffff16908060040154908060050160009054906101000a900460ff16905086565b6000805490508210610de6576040517f08c379a0000000000000000000000000000000000000000000000000000000008152600401610ddd90612a86565b60405180910390fd5b6000808381548110610dfb57610dfa612864565b5b906000526020600020906006020190508060030160009054906101000a900473ffffffffffffffffffffffffffffffffffffffff1673ffffffffffffffffffffffffffffffffffffffff163373ffffffffffffffffffffffffffffffffffffffff1614610e9d576040517f08c379a0000000000000000000000000000000000000000000000000000000008152600401610e9490612af2565b60405180910390fd5b60006002811115610eb157610eb0611eda565b5b8160050160009054906101000a900460ff166002811115610ed557610ed4611eda565b5b14610f15576040517f08c379a0000000000000000000000000000000000000000000000000000000008152600401610f0c906129ff565b60405180910390fd5b81610f21576002610f24565b60015b8160050160006101000a81548160ff02191690836002811115610f4a57610f49611eda565b5b02179055503373ffffffffffffffffffffffffffffffffffffffff16837f64270f686610f2a230abb58e1b622a74be7dc1a4cfa483e25452195d59f2544c8360050160009054906101000a900460ff16604051610fa79190612b12565b60405180910390a3505050565b60003373ffffffffffffffffffffffffffffffffffffffff168273ffffffffffffffffffffffffffffffffffffffff1603611024576040517f08c379a000000000000000000000000000000000000000000000000000000000815260040161101b90612b79565b60405180910390fd5b600060405180608001604052803373ffffffffffffffffffffffffffffffffffffffff1681526020018473ffffffffffffffffffffffffffffffffffffffff1681526020014281526020016000600281111561108357611082611eda565b5b8152509050600181908060018154018082558091505060019003906000526020600020906004020160009091909190915060008201518160000160006101000a81548173ffffffffffffffffffffffffffffffffffffffff021916908373ffffffffffffffffffffffffffffffffffffffff16021790555060208201518160010160006101000a81548173ffffffffffffffffffffffffffffffffffffffff021916908373ffffffffffffffffffffffffffffffffffffffff1602179055506040820151816002015560608201518160030160006101000a81548160ff0219169083600281111561117757611176611eda565b5b0217905550505060006001808054905061119191906127ab565b90508373ffffffffffffffffffffffffffffffffffffffff163373ffffffffffffffffffffffffffffffffffffffff16827f789c60ca65ac46bc2d49d26c5796cfdb373b08433fa5c2c260a8c39e63139750426040516111f19190611db8565b60405180910390a48092505050919050565b60606000805b600180549050811015611326578373ffffffffffffffffffffffffffffffffffffffff166001828154811061124157611240612864565b5b906000526020600020906004020160000160009054906101000a900473ffffffffffffffffffffffffffffffffffffffff1673ffffffffffffffffffffffffffffffffffffffff16148061130557508373ffffffffffffffffffffffffffffffffffffffff16600182815481106112bb576112ba612864565b5b906000526020600020906004020160010160009054906101000a900473ffffffffffffffffffffffffffffffffffffffff1673ffffffffffffffffffffffffffffffffffffffff16145b1561131957818061131590612893565b9250505b8080600101915050611209565b5060008167ffffffffffffffff8111156113435761134261246f565b5b60405190808252806020026020018201604052801561137c57816020015b611369611bd7565b8152602001906001900390816113615790505b5090506000805b6001805490508110156115da578573ffffffffffffffffffffffffffffffffffffffff16600182815481106113bb576113ba612864565b5b906000526020600020906004020160000160009054906101000a900473ffffffffffffffffffffffffffffffffffffffff1673ffffffffffffffffffffffffffffffffffffffff16148061147f57508573ffffffffffffffffffffffffffffffffffffffff166001828154811061143557611434612864565b5b906000526020600020906004020160010160009054906101000a900473ffffffffffffffffffffffffffffffffffffffff1673ffffffffffffffffffffffffffffffffffffffff16145b156115cd576001818154811061149857611497612864565b5b90600052602060002090600402016040518060800160405290816000820160009054906101000a900473ffffffffffffffffffffffffffffffffffffffff1673ffffffffffffffffffffffffffffffffffffffff1673ffffffffffffffffffffffffffffffffffffffff1681526020016001820160009054906101000a900473ffffffffffffffffffffffffffffffffffffffff1673ffffffffffffffffffffffffffffffffffffffff1673ffffffffffffffffffffffffffffffffffffffff168152602001600282015481526020016003820160009054906101000a900460ff16600281111561158c5761158b611eda565b5b600281111561159e5761159d611eda565b5b815250508383806115ae90612893565b9450815181106115c1576115c0612864565b5b60200260200101819052505b8080600101915050611383565b50819350505050919050565b600080600090506000805b60008054905081101561190657600080828154811061161357611612612864565b5b90600052602060002090600602016040518060c001604052908160008201805461163c906124cd565b80601f0160208091040260200160405190810160405280929190818152602001828054611668906124cd565b80156116b55780601f1061168a576101008083540402835291602001916116b5565b820191906000526020600020905b81548152906001019060200180831161169857829003601f168201915b505050505081526020016001820180546116ce906124cd565b80601f01602080910402602001604051908101604052809291908181526020018280546116fa906124cd565b80156117475780601f1061171c57610100808354040283529160200191611747565b820191906000526020600020905b81548152906001019060200180831161172a57829003601f168201915b505050505081526020016002820160009054906101000a900473ffffffffffffffffffffffffffffffffffffffff1673ffffffffffffffffffffffffffffffffffffffff1673ffffffffffffffffffffffffffffffffffffffff1681526020016003820160009054906101000a900473ffffffffffffffffffffffffffffffffffffffff1673ffffffffffffffffffffffffffffffffffffffff1673ffffffffffffffffffffffffffffffffffffffff168152602001600482015481526020016005820160009054906101000a900460ff16600281111561182b5761182a611eda565b5b600281111561183d5761183c611eda565b5b8152505090508573ffffffffffffffffffffffffffffffffffffffff16816040015173ffffffffffffffffffffffffffffffffffffffff1614806118b057508573ffffffffffffffffffffffffffffffffffffffff16816060015173ffffffffffffffffffffffffffffffffffffffff16145b80156118e45750600160028111156118cb576118ca611eda565b5b8160a0015160028111156118e2576118e1611eda565b5b145b156118f85783806118f490612893565b9450505b5080806001019150506115f1565b5060005b600180549050811015611afc5760006001828154811061192d5761192c612864565b5b90600052602060002090600402016040518060800160405290816000820160009054906101000a900473ffffffffffffffffffffffffffffffffffffffff1673ffffffffffffffffffffffffffffffffffffffff1673ffffffffffffffffffffffffffffffffffffffff1681526020016001820160009054906101000a900473ffffffffffffffffffffffffffffffffffffffff1673ffffffffffffffffffffffffffffffffffffffff1673ffffffffffffffffffffffffffffffffffffffff168152602001600282015481526020016003820160009054906101000a900460ff166002811115611a2157611a20611eda565b5b6002811115611a3357611a32611eda565b5b8152505090508573ffffffffffffffffffffffffffffffffffffffff16816000015173ffffffffffffffffffffffffffffffffffffffff161480611aa657508573ffffffffffffffffffffffffffffffffffffffff16816020015173ffffffffffffffffffffffffffffffffffffffff16145b8015611ada575060016002811115611ac157611ac0611eda565b5b81606001516002811115611ad857611ad7611eda565b5b145b15611aee578280611aea90612893565b9350505b50808060010191505061190a565b50600082148015611b0d5750600081145b15611b1d57600192505050611b5e565b80821115611b3a578082611b3191906127ab565b92505050611b5e565b81811115611b57578181611b4e91906127ab565b92505050611b5e565b6000925050505b919050565b6040518060c001604052806060815260200160608152602001600073ffffffffffffffffffffffffffffffffffffffff168152602001600073ffffffffffffffffffffffffffffffffffffffff1681526020016000815260200160006002811115611bd157611bd0611eda565b5b81525090565b6040518060800160405280600073ffffffffffffffffffffffffffffffffffffffff168152602001600073ffffffffffffffffffffffffffffffffffffffff1681526020016000815260200160006002811115611c3757611c36611eda565b5b81525090565b600080fd5b600080fd5b600073ffffffffffffffffffffffffffffffffffffffff82169050919050565b6000611c7282611c47565b9050919050565b611c8281611c67565b8114611c8d57600080fd5b50565b600081359050611c9f81611c79565b92915050565b600080fd5b600080fd5b600080fd5b60008083601f840112611cca57611cc9611ca5565b5b8235905067ffffffffffffffff811115611ce757611ce6611caa565b5b602083019150836001820283011115611d0357611d02611caf565b5b9250929050565b600080600080600060608688031215611d2657611d25611c3d565b5b6000611d3488828901611c90565b955050602086013567ffffffffffffffff811115611d5557611d54611c42565b5b611d6188828901611cb4565b9450945050604086013567ffffffffffffffff811115611d8457611d83611c42565b5b611d9088828901611cb4565b92509250509295509295909350565b6000819050919050565b611db281611d9f565b82525050565b6000602082019050611dcd6000830184611da9565b92915050565b600060208284031215611de957611de8611c3d565b5b6000611df784828501611c90565b91505092915050565b600081519050919050565b600082825260208201905092915050565b6000819050602082019050919050565b600081519050919050565b600082825260208201905092915050565b60005b83811015611e66578082015181840152602081019050611e4b565b60008484015250505050565b6000601f19601f8301169050919050565b6000611e8e82611e2c565b611e988185611e37565b9350611ea8818560208601611e48565b611eb181611e72565b840191505092915050565b611ec581611c67565b82525050565b611ed481611d9f565b82525050565b7f4e487b7100000000000000000000000000000000000000000000000000000000600052602160045260246000fd5b60038110611f1a57611f19611eda565b5b50565b6000819050611f2b82611f09565b919050565b6000611f3b82611f1d565b9050919050565b611f4b81611f30565b82525050565b600060c0830160008301518482036000860152611f6e8282611e83565b91505060208301518482036020860152611f888282611e83565b9150506040830151611f9d6040860182611ebc565b506060830151611fb06060860182611ebc565b506080830151611fc36080860182611ecb565b5060a0830151611fd660a0860182611f42565b508091505092915050565b6000611fed8383611f51565b905092915050565b6000602082019050919050565b600061200d82611e00565b6120178185611e0b565b93508360208202850161202985611e1c565b8060005b8581101561206557848403895281516120468582611fe1565b945061205183611ff5565b925060208a0199505060018101905061202d565b50829750879550505050505092915050565b600060208201905081810360008301526120918184612002565b905092915050565b6120a281611d9f565b81146120ad57600080fd5b50565b6000813590506120bf81612099565b92915050565b6000602082840312156120db576120da611c3d565b5b60006120e9848285016120b0565b91505092915050565b6120fb81611c67565b82525050565b6003811061211257612111611eda565b5b50565b600081905061212382612101565b919050565b600061213382612115565b9050919050565b61214381612128565b82525050565b600060808201905061215e60008301876120f2565b61216b60208301866120f2565b6121786040830185611da9565b612185606083018461213a565b95945050505050565b60008115159050919050565b6121a38161218e565b81146121ae57600080fd5b50565b6000813590506121c08161219a565b92915050565b600080604083850312156121dd576121dc611c3d565b5b60006121eb858286016120b0565b92505060206121fc858286016121b1565b9150509250929050565b600082825260208201905092915050565b600061222282611e2c565b61222c8185612206565b935061223c818560208601611e48565b61224581611e72565b840191505092915050565b61225981611f30565b82525050565b600060c08201905081810360008301526122798189612217565b9050818103602083015261228d8188612217565b905061229c60408301876120f2565b6122a960608301866120f2565b6122b66080830185611da9565b6122c360a0830184612250565b979650505050505050565b600081519050919050565b600082825260208201905092915050565b6000819050602082019050919050565b61230381612128565b82525050565b60808201600082015161231f6000850182611ebc565b5060208201516123326020850182611ebc565b5060408201516123456040850182611ecb565b50606082015161235860608501826122fa565b50505050565b600061236a8383612309565b60808301905092915050565b6000602082019050919050565b600061238e826122ce565b61239881856122d9565b93506123a3836122ea565b8060005b838110156123d45781516123bb888261235e565b97506123c683612376565b9250506001810190506123a7565b5085935050505092915050565b600060208201905081810360008301526123fb8184612383565b905092915050565b7f43616e6e6f7420636f6e6665737320746f20796f757273656c66000000000000600082015250565b6000612439601a83612206565b915061244482612403565b602082019050919050565b600060208201905081810360008301526124688161242c565b9050919050565b7f4e487b7100000000000000000000000000000000000000000000000000000000600052604160045260246000fd5b7f4e487b7100000000000000000000000000000000000000000000000000000000600052602260045260246000fd5b600060028204905060018216806124e557607f821691505b6020821081036124f8576124f761249e565b5b50919050565b60008190508160005260206000209050919050565b60006020601f8301049050919050565b600082821b905092915050565b6000600883026125607fffffffffffffffffffffffffffffffffffffffffffffffffffffffffffffffff82612523565b61256a8683612523565b95508019841693508086168417925050509392505050565b6000819050919050565b60006125a76125a261259d84611d9f565b612582565b611d9f565b9050919050565b6000819050919050565b6125c18361258c565b6125d56125cd826125ae565b848454612530565b825550505050565b600090565b6125ea6125dd565b6125f58184846125b8565b505050565b5b818110156126195761260e6000826125e2565b6001810190506125fb565b5050565b601f82111561265e5761262f816124fe565b61263884612513565b81016020851015612647578190505b61265b61265385612513565b8301826125fa565b50505b505050565b600082821c905092915050565b600061268160001984600802612663565b1980831691505092915050565b600061269a8383612670565b9150826002028217905092915050565b6126b382611e2c565b67ffffffffffffffff8111156126cc576126cb61246f565b5b6126d682546124cd565b6126e182828561261d565b600060209050601f8311600181146127145760008415612702578287015190505b61270c858261268e565b865550612774565b601f198416612722866124fe565b60005b8281101561274a57848901518255600182019150602085019450602081019050612725565b868310156127675784890151612763601f891682612670565b8355505b6001600288020188555050505b505050505050565b7f4e487b7100000000000000000000000000000000000000000000000000000000600052601160045260246000fd5b60006127b682611d9f565b91506127c183611d9f565b92508282039050818111156127d9576127d861277c565b5b92915050565b82818337600083830152505050565b60006127fa8385612206565b93506128078385846127df565b61281083611e72565b840190509392505050565b600060608201905081810360008301526128368187896127ee565b9050818103602083015261284b8185876127ee565b905061285a6040830184611da9565b9695505050505050565b7f4e487b7100000000000000000000000000000000000000000000000000000000600052603260045260246000fd5b600061289e82611d9f565b91507fffffffffffffffffffffffffffffffffffffffffffffffffffffffffffffffff82036128d0576128cf61277c565b5b600182019050919050565b7f496e76616c6964206d6172726961676549640000000000000000000000000000600082015250565b6000612911601283612206565b915061291c826128db565b602082019050919050565b6000602082019050818103600083015261294081612904565b9050919050565b7f4f6e6c7920706172746e6572422063616e20726573706f6e6400000000000000600082015250565b600061297d601983612206565b915061298882612947565b602082019050919050565b600060208201905081810360008301526129ac81612970565b9050919050565b7f416c726561647920726573706f6e646564000000000000000000000000000000600082015250565b60006129e9601183612206565b91506129f4826129b3565b602082019050919050565b60006020820190508181036000830152612a18816129dc565b9050919050565b6000602082019050612a34600083018461213a565b92915050565b7f496e76616c696420636f6e66657373696f6e4964000000000000000000000000600082015250565b6000612a70601483612206565b9150612a7b82612a3a565b602082019050919050565b60006020820190508181036000830152612a9f81612a63565b9050919050565b7f4f6e6c792072656365697665722063616e20726573706f6e6400000000000000600082015250565b6000612adc601983612206565b9150612ae782612aa6565b602082019050919050565b60006020820190508181036000830152612b0b81612acf565b9050919050565b6000602082019050612b276000830184612250565b92915050565b7f43616e6e6f74206d6172727920796f757273656c660000000000000000000000600082015250565b6000612b63601583612206565b9150612b6e82612b2d565b602082019050919050565b60006020820190508181036000830152612b9281612b56565b905091905056fea26469706673582212206d61cd14c0a15e72c5187c48bc746d88d20c45c2871bc7e106c68ad90841aa0764736f6c634300081c0033",
  "linkReferences": {},
  "deployedLinkReferences": {}
}