{
  "_format": "hh-sol-artifact-1",
  "contractName": "LoveChain",
  "sourceName": "contracts/LoveChain.sol",
  "abi": [
    {
      "anonymous": false,
      "inputs": [
        {
          "indexed": true,
          "internalType": "address",
          "name": "sender",
          "type": "address"
        },
        {
          "indexed": true,
          "internalType": "address",
          "name": "receiver",
          "type": "address"
        },
        {
          "indexed": false,
          "internalType": "string",
          "name": "title",
          "type": "string"
        },
        {
          "indexed": false,
          "internalType": "string",
          "name": "message",
          "type": "string"
        },
        {
          "indexed": false,
          "internalType": "uint256",
          "name": "timestamp",
          "type": "uint256"
        }
      ],
      "name": "LoveSent",
      "type": "event"
    },
    {
      "anonymous": false,
      "inputs": [
        {
          "indexed": true,
          "internalType": "address",
          "name": "user",
          "type": "address"
        },
        {
          "indexed": false,
          "internalType": "uint256",
          "name": "newScore",
          "type": "uint256"
        }
      ],
      "name": "LoyaltyUpdated",
      "type": "event"
    },
    {
      "anonymous": false,
      "inputs": [
        {
          "indexed": true,
          "internalType": "address",
          "name": "partnerA",
          "type": "address"
        },
        {
          "indexed": true,
          "internalType": "address",
          "name": "partnerB",
          "type": "address"
        },
        {
          "indexed": false,
          "internalType": "uint256",
          "name": "timestamp",
          "type": "uint256"
        }
      ],
      "name": "MarriageRegistered",
      "type": "event"
    },
    {
      "inputs": [
        {
          "internalType": "address",
          "name": "_to",
          "type": "address"
        },
        {
          "internalType": "string",
          "name": "_title",
          "type": "string"
        },
        {
          "internalType": "string",
          "name": "_message",
          "type": "string"
        }
      ],
      "name": "confess",
      "outputs": [],
      "stateMutability": "nonpayable",
      "type": "function"
    },
    {
      "inputs": [],
      "name": "getAllConfessions",
      "outputs": [
        {
          "components": [
            {
              "internalType": "string",
              "name": "title",
              "type": "string"
            },
            {
              "internalType": "string",
              "name": "message",
              "type": "string"
            },
            {
              "internalType": "address",
              "name": "sender",
              "type": "address"
            },
            {
              "internalType": "address",
              "name": "receiver",
              "type": "address"
            },
            {
              "internalType": "uint256",
              "name": "timestamp",
              "type": "uint256"
            }
          ],
          "internalType": "struct LoveChain.LoveRecord[]",
          "name": "",
          "type": "tuple[]"
        }
      ],
      "stateMutability": "view",
      "type": "function"
    },
    {
      "inputs": [
        {
          "internalType": "uint256",
          "name": "",
          "type": "uint256"
        }
      ],
      "name": "loveRecords",
      "outputs": [
        {
          "internalType": "string",
          "name": "title",
          "type": "string"
        },
        {
          "internalType": "string",
          "name": "message",
          "type": "string"
        },
        {
          "internalType": "address",
          "name": "sender",
          "type": "address"
        },
        {
          "internalType": "address",
          "name": "receiver",
          "type": "address"
        },
        {
          "internalType": "uint256",
          "name": "timestamp",
          "type": "uint256"
        }
      ],
      "stateMutability": "view",
      "type": "function"
    },
    {
      "inputs": [
        {
          "internalType": "address",
          "name": "partner",
          "type": "address"
        }
      ],
      "name": "loyaltyInteraction",
      "outputs": [],
      "stateMutability": "nonpayable",
      "type": "function"
    },
    {
      "inputs": [
        {
          "internalType": "address",
          "name": "partner",
          "type": "address"
        }
      ],
      "name": "registerMarriage",
      "outputs": [],
      "stateMutability": "nonpayable",
      "type": "function"
    }
  ],
  "bytecode": "0x6080604052348015600f57600080fd5b5061134d8061001f6000396000f3fe608060405234801561001057600080fd5b50600436106100575760003560e01c806304a30f121461005c57806368338668146100785780638d6a310314610094578063a5696f61146100b0578063b6666e34146100e4575b600080fd5b61007660048036038101906100719190610b01565b610102565b005b610092600480360381019061008d9190610b96565b610342565b005b6100ae60048036038101906100a99190610b96565b6103e1565b005b6100ca60048036038101906100c59190610bf9565b610665565b6040516100db959493929190610cd4565b60405180910390f35b6100ec6107fb565b6040516100f99190610edc565b60405180910390f35b60006040518060a0016040528086868080601f016020809104026020016040519081016040528093929190818152602001838380828437600081840152601f19601f82011690508083019250505050505050815260200184848080601f016020809104026020016040519081016040528093929190818152602001838380828437600081840152601f19601f8201169050808301925050505050505081526020013373ffffffffffffffffffffffffffffffffffffffff1681526020018773ffffffffffffffffffffffffffffffffffffffff168152602001428152509080600181540180825580915050600190039060005260206000209060050201600090919091909150600082015181600001908161021d9190611139565b5060208201518160010190816102339190611139565b5060408201518160020160006101000a81548173ffffffffffffffffffffffffffffffffffffffff021916908373ffffffffffffffffffffffffffffffffffffffff16021790555060608201518160030160006101000a81548173ffffffffffffffffffffffffffffffffffffffff021916908373ffffffffffffffffffffffffffffffffffffffff1602179055506080820151816004015550508473ffffffffffffffffffffffffffffffffffffffff163373ffffffffffffffffffffffffffffffffffffffff167ff0055ab571217e0b4e70ccc265cc8e68bb7b392bf54ecb370d708d9a1d2bbf3f8686868642604051610333959493929190611247565b60405180910390a35050505050565b3373ffffffffffffffffffffffffffffffffffffffff167f7436aa26fc2b6bc1749b7376cff3792645b88dccd34c2b51782c9ce97cb95980426040516103889190611290565b60405180910390a28073ffffffffffffffffffffffffffffffffffffffff167f7436aa26fc2b6bc1749b7376cff3792645b88dccd34c2b51782c9ce97cb95980426040516103d69190611290565b60405180910390a250565b3373ffffffffffffffffffffffffffffffffffffffff168173ffffffffffffffffffffffffffffffffffffffff160361044f576040517f08c379a0000000000000000000000000000000000000000000000000000000008152600401610446906112f7565b60405180910390fd5b60006040518060a001604052806040518060400160405280600881526020017f4d6172726961676500000000000000000000000000000000000000000000000081525081526020016040518060400160405280601381526020017f4d6172726961676520526567697374657265640000000000000000000000000081525081526020013373ffffffffffffffffffffffffffffffffffffffff1681526020018373ffffffffffffffffffffffffffffffffffffffff168152602001428152509080600181540180825580915050600190039060005260206000209060050201600090919091909150600082015181600001908161054c9190611139565b5060208201518160010190816105629190611139565b5060408201518160020160006101000a81548173ffffffffffffffffffffffffffffffffffffffff021916908373ffffffffffffffffffffffffffffffffffffffff16021790555060608201518160030160006101000a81548173ffffffffffffffffffffffffffffffffffffffff021916908373ffffffffffffffffffffffffffffffffffffffff1602179055506080820151816004015550508073ffffffffffffffffffffffffffffffffffffffff163373ffffffffffffffffffffffffffffffffffffffff167f148910fa0651108489c1b3f170182a690ffe66b4a359a62fa9ef045130a75c814260405161065a9190611290565b60405180910390a350565b6000818154811061067557600080fd5b906000526020600020906005020160009150905080600001805461069890610f5c565b80601f01602080910402602001604051908101604052809291908181526020018280546106c490610f5c565b80156107115780601f106106e657610100808354040283529160200191610711565b820191906000526020600020905b8154815290600101906020018083116106f457829003601f168201915b50505050509080600101805461072690610f5c565b80601f016020809104026020016040519081016040528092919081815260200182805461075290610f5c565b801561079f5780601f106107745761010080835404028352916020019161079f565b820191906000526020600020905b81548152906001019060200180831161078257829003601f168201915b5050505050908060020160009054906101000a900473ffffffffffffffffffffffffffffffffffffffff16908060030160009054906101000a900473ffffffffffffffffffffffffffffffffffffffff16908060040154905085565b60606000805480602002602001604051908101604052809291908181526020016000905b82821015610a2b57838290600052602060002090600502016040518060a001604052908160008201805461085290610f5c565b80601f016020809104026020016040519081016040528092919081815260200182805461087e90610f5c565b80156108cb5780601f106108a0576101008083540402835291602001916108cb565b820191906000526020600020905b8154815290600101906020018083116108ae57829003601f168201915b505050505081526020016001820180546108e490610f5c565b80601f016020809104026020016040519081016040528092919081815260200182805461091090610f5c565b801561095d5780601f106109325761010080835404028352916020019161095d565b820191906000526020600020905b81548152906001019060200180831161094057829003601f168201915b505050505081526020016002820160009054906101000a900473ffffffffffffffffffffffffffffffffffffffff1673ffffffffffffffffffffffffffffffffffffffff1673ffffffffffffffffffffffffffffffffffffffff1681526020016003820160009054906101000a900473ffffffffffffffffffffffffffffffffffffffff1673ffffffffffffffffffffffffffffffffffffffff1673ffffffffffffffffffffffffffffffffffffffff1681526020016004820154815250508152602001906001019061081f565b50505050905090565b600080fd5b600080fd5b600073ffffffffffffffffffffffffffffffffffffffff82169050919050565b6000610a6982610a3e565b9050919050565b610a7981610a5e565b8114610a8457600080fd5b50565b600081359050610a9681610a70565b92915050565b600080fd5b600080fd5b600080fd5b60008083601f840112610ac157610ac0610a9c565b5b8235905067ffffffffffffffff811115610ade57610add610aa1565b5b602083019150836001820283011115610afa57610af9610aa6565b5b9250929050565b600080600080600060608688031215610b1d57610b1c610a34565b5b6000610b2b88828901610a87565b955050602086013567ffffffffffffffff811115610b4c57610b4b610a39565b5b610b5888828901610aab565b9450945050604086013567ffffffffffffffff811115610b7b57610b7a610a39565b5b610b8788828901610aab565b92509250509295509295909350565b600060208284031215610bac57610bab610a34565b5b6000610bba84828501610a87565b91505092915050565b6000819050919050565b610bd681610bc3565b8114610be157600080fd5b50565b600081359050610bf381610bcd565b92915050565b600060208284031215610c0f57610c0e610a34565b5b6000610c1d84828501610be4565b91505092915050565b600081519050919050565b600082825260208201905092915050565b60005b83811015610c60578082015181840152602081019050610c45565b60008484015250505050565b6000601f19601f8301169050919050565b6000610c8882610c26565b610c928185610c31565b9350610ca2818560208601610c42565b610cab81610c6c565b840191505092915050565b610cbf81610a5e565b82525050565b610cce81610bc3565b82525050565b600060a0820190508181036000830152610cee8188610c7d565b90508181036020830152610d028187610c7d565b9050610d116040830186610cb6565b610d1e6060830185610cb6565b610d2b6080830184610cc5565b9695505050505050565b600081519050919050565b600082825260208201905092915050565b6000819050602082019050919050565b600082825260208201905092915050565b6000610d7d82610c26565b610d878185610d61565b9350610d97818560208601610c42565b610da081610c6c565b840191505092915050565b610db481610a5e565b82525050565b610dc381610bc3565b82525050565b600060a0830160008301518482036000860152610de68282610d72565b91505060208301518482036020860152610e008282610d72565b9150506040830151610e156040860182610dab565b506060830151610e286060860182610dab565b506080830151610e3b6080860182610dba565b508091505092915050565b6000610e528383610dc9565b905092915050565b6000602082019050919050565b6000610e7282610d35565b610e7c8185610d40565b935083602082028501610e8e85610d51565b8060005b85811015610eca5784840389528151610eab8582610e46565b9450610eb683610e5a565b925060208a01995050600181019050610e92565b50829750879550505050505092915050565b60006020820190508181036000830152610ef68184610e67565b905092915050565b7f4e487b7100000000000000000000000000000000000000000000000000000000600052604160045260246000fd5b7f4e487b7100000000000000000000000000000000000000000000000000000000600052602260045260246000fd5b60006002820490506001821680610f7457607f821691505b602082108103610f8757610f86610f2d565b5b50919050565b60008190508160005260206000209050919050565b60006020601f8301049050919050565b600082821b905092915050565b600060088302610fef7fffffffffffffffffffffffffffffffffffffffffffffffffffffffffffffffff82610fb2565b610ff98683610fb2565b95508019841693508086168417925050509392505050565b6000819050919050565b600061103661103161102c84610bc3565b611011565b610bc3565b9050919050565b6000819050919050565b6110508361101b565b61106461105c8261103d565b848454610fbf565b825550505050565b600090565b61107961106c565b611084818484611047565b505050565b5b818110156110a85761109d600082611071565b60018101905061108a565b5050565b601f8211156110ed576110be81610f8d565b6110c784610fa2565b810160208510156110d6578190505b6110ea6110e285610fa2565b830182611089565b50505b505050565b600082821c905092915050565b6000611110600019846008026110f2565b1980831691505092915050565b600061112983836110ff565b9150826002028217905092915050565b61114282610c26565b67ffffffffffffffff81111561115b5761115a610efe565b5b6111658254610f5c565b6111708282856110ac565b600060209050601f8311600181146111a35760008415611191578287015190505b61119b858261111d565b865550611203565b601f1984166111b186610f8d565b60005b828110156111d9578489015182556001820191506020850194506020810190506111b4565b868310156111f657848901516111f2601f8916826110ff565b8355505b6001600288020188555050505b505050505050565b82818337600083830152505050565b60006112268385610c31565b935061123383858461120b565b61123c83610c6c565b840190509392505050565b6000606082019050818103600083015261126281878961121a565b9050818103602083015261127781858761121a565b90506112866040830184610cc5565b9695505050505050565b60006020820190506112a56000830184610cc5565b92915050565b7f43616e6e6f74206d6172727920796f757273656c660000000000000000000000600082015250565b60006112e1601583610c31565b91506112ec826112ab565b602082019050919050565b60006020820190508181036000830152611310816112d4565b905091905056fea26469706673582212207511b59d5ecb1a417caa7a1b23ab2fdefd8ea0cc24c8ceb8691a3e8c6baf597264736f6c634300081c0033",
  "linkReferences": {},
  "deployedLinkReferences": {}
}